{
  "contractName": "DINTToken",
  "abi": [
    {
      "constant": true,
      "inputs": [],
      "name": "name",
      "outputs": [
        {
          "name": "",
          "type": "string"
        }
      ],
      "payable": false,
      "stateMutability": "view",
      "type": "function"
    },
    {
      "constant": false,
      "inputs": [
        {
          "name": "_spender",
          "type": "address"
        },
        {
          "name": "_value",
          "type": "uint256"
        }
      ],
      "name": "approve",
      "outputs": [
        {
          "name": "",
          "type": "bool"
        }
      ],
      "payable": false,
      "stateMutability": "nonpayable",
      "type": "function"
    },
    {
      "constant": true,
      "inputs": [],
      "name": "totalSupply",
      "outputs": [
        {
          "name": "",
          "type": "uint256"
        }
      ],
      "payable": false,
      "stateMutability": "view",
      "type": "function"
    },
    {
      "constant": true,
      "inputs": [],
      "name": "fundsWallet",
      "outputs": [
        {
          "name": "",
          "type": "address"
        }
      ],
      "payable": false,
      "stateMutability": "view",
      "type": "function"
    },
    {
      "constant": true,
      "inputs": [],
      "name": "maxCap",
      "outputs": [
        {
          "name": "",
          "type": "uint256"
        }
      ],
      "payable": false,
      "stateMutability": "view",
      "type": "function"
    },
    {
      "constant": false,
      "inputs": [
        {
          "name": "_from",
          "type": "address"
        },
        {
          "name": "_to",
          "type": "address"
        },
        {
          "name": "_value",
          "type": "uint256"
        }
      ],
      "name": "transferFrom",
      "outputs": [
        {
          "name": "",
          "type": "bool"
        }
      ],
      "payable": false,
      "stateMutability": "nonpayable",
      "type": "function"
    },
    {
      "constant": true,
      "inputs": [],
      "name": "decimals",
      "outputs": [
        {
          "name": "",
          "type": "uint256"
        }
      ],
      "payable": false,
      "stateMutability": "view",
      "type": "function"
    },
    {
      "constant": false,
      "inputs": [
        {
          "name": "_spender",
          "type": "address"
        },
        {
          "name": "_subtractedValue",
          "type": "uint256"
        }
      ],
      "name": "decreaseApproval",
      "outputs": [
        {
          "name": "",
          "type": "bool"
        }
      ],
      "payable": false,
      "stateMutability": "nonpayable",
      "type": "function"
    },
    {
      "constant": true,
      "inputs": [
        {
          "name": "_owner",
          "type": "address"
        }
      ],
      "name": "balanceOf",
      "outputs": [
        {
          "name": "balance",
          "type": "uint256"
        }
      ],
      "payable": false,
      "stateMutability": "view",
      "type": "function"
    },
    {
      "constant": true,
      "inputs": [],
      "name": "symbol",
      "outputs": [
        {
          "name": "",
          "type": "string"
        }
      ],
      "payable": false,
      "stateMutability": "view",
      "type": "function"
    },
    {
      "constant": true,
      "inputs": [],
      "name": "durationSeconds",
      "outputs": [
        {
          "name": "",
          "type": "uint256"
        }
      ],
      "payable": false,
      "stateMutability": "view",
      "type": "function"
    },
    {
      "constant": true,
      "inputs": [],
      "name": "minAmount",
      "outputs": [
        {
          "name": "",
          "type": "uint256"
        }
      ],
      "payable": false,
      "stateMutability": "view",
      "type": "function"
    },
    {
      "constant": false,
      "inputs": [
        {
          "name": "_to",
          "type": "address"
        },
        {
          "name": "_value",
          "type": "uint256"
        }
      ],
      "name": "transfer",
      "outputs": [
        {
          "name": "",
          "type": "bool"
        }
      ],
      "payable": false,
      "stateMutability": "nonpayable",
      "type": "function"
    },
    {
      "constant": true,
      "inputs": [
        {
          "name": "",
          "type": "uint256"
        }
      ],
      "name": "weeklyRewards",
      "outputs": [
        {
          "name": "",
          "type": "uint256"
        }
      ],
      "payable": false,
      "stateMutability": "view",
      "type": "function"
    },
    {
      "constant": true,
      "inputs": [],
      "name": "coinsPerETH",
      "outputs": [
        {
          "name": "",
          "type": "uint256"
        }
      ],
      "payable": false,
      "stateMutability": "view",
      "type": "function"
    },
    {
      "constant": true,
      "inputs": [],
      "name": "totalRaised",
      "outputs": [
        {
          "name": "",
          "type": "uint256"
        }
      ],
      "payable": false,
      "stateMutability": "view",
      "type": "function"
    },
    {
      "constant": false,
      "inputs": [
        {
          "name": "_spender",
          "type": "address"
        },
        {
          "name": "_addedValue",
          "type": "uint256"
        }
      ],
      "name": "increaseApproval",
      "outputs": [
        {
          "name": "",
          "type": "bool"
        }
      ],
      "payable": false,
      "stateMutability": "nonpayable",
      "type": "function"
    },
    {
      "constant": true,
      "inputs": [
        {
          "name": "_owner",
          "type": "address"
        },
        {
          "name": "_spender",
          "type": "address"
        }
      ],
      "name": "allowance",
      "outputs": [
        {
          "name": "",
          "type": "uint256"
        }
      ],
      "payable": false,
      "stateMutability": "view",
      "type": "function"
    },
    {
      "constant": true,
      "inputs": [],
      "name": "startTimestamp",
      "outputs": [
        {
          "name": "",
          "type": "uint256"
        }
      ],
      "payable": false,
      "stateMutability": "view",
      "type": "function"
    },
    {
      "inputs": [],
      "payable": false,
      "stateMutability": "nonpayable",
      "type": "constructor"
    },
    {
      "payable": true,
      "stateMutability": "payable",
      "type": "fallback"
    },
    {
      "anonymous": false,
      "inputs": [
        {
          "indexed": true,
          "name": "owner",
          "type": "address"
        },
        {
          "indexed": true,
          "name": "spender",
          "type": "address"
        },
        {
          "indexed": false,
          "name": "value",
          "type": "uint256"
        }
      ],
      "name": "Approval",
      "type": "event"
    },
    {
      "anonymous": false,
      "inputs": [
        {
          "indexed": true,
          "name": "from",
          "type": "address"
        },
        {
          "indexed": true,
          "name": "to",
          "type": "address"
        },
        {
          "indexed": false,
          "name": "value",
          "type": "uint256"
        }
      ],
      "name": "Transfer",
      "type": "event"
    },
    {
      "constant": true,
      "inputs": [
        {
          "name": "weiAmount",
          "type": "uint256"
        }
      ],
      "name": "calculateTokenAmount",
      "outputs": [
        {
          "name": "",
          "type": "uint256"
        }
      ],
      "payable": false,
      "stateMutability": "view",
      "type": "function"
    },
    {
      "constant": false,
      "inputs": [
        {
          "name": "_startTimestamp",
          "type": "uint256"
        },
        {
          "name": "_durationSeconds",
          "type": "uint256"
        },
        {
          "name": "_coinsPerETH",
          "type": "uint256"
        },
        {
          "name": "_maxCap",
          "type": "uint256"
        },
        {
          "name": "_week1Rewards",
          "type": "uint256"
        },
        {
          "name": "_week2Rewards",
          "type": "uint256"
        },
        {
          "name": "_week3Rewards",
          "type": "uint256"
        },
        {
          "name": "_week4Rewards",
          "type": "uint256"
        }
      ],
      "name": "adminAddICO",
      "outputs": [],
      "payable": false,
      "stateMutability": "nonpayable",
      "type": "function"
    }
  ],
  "bytecode": "0x606060405260408051908101604052600981527f44494e5420436f696e00000000000000000000000000000000000000000000006020820152600390805161004b929160200190610157565b506040805190810160405260048082527f44494e54000000000000000000000000000000000000000000000000000000006020830152908051610092929160200190610157565b5060126005556a108b2a2c2802909400000060065562278d00600955670de0b6b3a7640000600b556102aa600c5534156100cb57600080fd5b600e8054600160a060020a031916731660225ed0229d1b1e62e56c5a9a9e19e004ea4a17808255635af78000600855600654600160a060020a039182166000908152602081905260408082208390559354909216927fddf252ad1be2c89b69c2b068fc378daa952ba7f163c4a11628f55a4df523b3ef91905190815260200160405180910390a36101f2565b828054600181600116156101000203166002900490600052602060002090601f016020900481019282601f1061019857805160ff19168380011785556101c5565b828001600101855582156101c5579182015b828111156101c55782518255916020019190600101906101aa565b506101d19291506101d5565b5090565b6101ef91905b808211156101d157600081556001016101db565b90565b610d98806102016000396000f30060606040526004361061011c5763ffffffff7c010000000000000000000000000000000000000000000000000000000060003504166306fdde03811461028b578063095ea7b31461031557806318160ddd1461034b5780632194f3a21461037057806323548b8b1461039f57806323b872dd146103b2578063313ce567146103da57806366188463146103ed57806370a082311461040f57806395d89b411461042e5780639acba2af146104415780639b2cb5d814610454578063a24bcf4614610467578063a9059cbb1461047d578063af364c051461049f578063af7d1890146104b5578063bceef6a7146104e2578063c5c4744c146104f5578063d73dd62314610508578063dd62ed3e1461052a578063e6fd48bc1461054f575b60085460009042101561012e57600080fd5b6009546008540142111561014157600080fd5b600a54600754111561015257600080fd5b600b54600c5461016990349063ffffffff61056216565b101561017457600080fd5b600754610187903463ffffffff61059816565b600755610193346105a7565b600e54600160a060020a03166000908152602081905260409020549091506101c1908263ffffffff61062f16565b600e54600160a060020a039081166000908152602081905260408082209390935533909116815220546101fa908263ffffffff61059816565b600160a060020a033381166000818152602081905260409081902093909355600e5490929116907fddf252ad1be2c89b69c2b068fc378daa952ba7f163c4a11628f55a4df523b3ef9084905190815260200160405180910390a3600e54600160a060020a03163480156108fc0290604051600060405180830381858888f19350505050151561028857600080fd5b50005b341561029657600080fd5b61029e610641565b60405160208082528190810183818151815260200191508051906020019080838360005b838110156102da5780820151838201526020016102c2565b50505050905090810190601f1680156103075780820380516001836020036101000a031916815260200191505b509250505060405180910390f35b341561032057600080fd5b610337600160a060020a03600435166024356106df565b604051901515815260200160405180910390f35b341561035657600080fd5b61035e61074b565b60405190815260200160405180910390f35b341561037b57600080fd5b610383610751565b604051600160a060020a03909116815260200160405180910390f35b34156103aa57600080fd5b61035e610760565b34156103bd57600080fd5b610337600160a060020a0360043581169060243516604435610766565b34156103e557600080fd5b61035e6108e6565b34156103f857600080fd5b610337600160a060020a03600435166024356108ec565b341561041a57600080fd5b61035e600160a060020a03600435166109e6565b341561043957600080fd5b61029e610a01565b341561044c57600080fd5b61035e610a6c565b341561045f57600080fd5b61035e610a72565b341561047257600080fd5b61035e6004356105a7565b341561048857600080fd5b610337600160a060020a0360043516602435610a78565b34156104aa57600080fd5b61035e600435610b8a565b34156104c057600080fd5b6104e060043560243560443560643560843560a43560c43560e435610b9c565b005b34156104ed57600080fd5b61035e610c74565b341561050057600080fd5b61035e610c7a565b341561051357600080fd5b610337600160a060020a0360043516602435610c80565b341561053557600080fd5b61035e600160a060020a0360043581169060243516610d24565b341561055a57600080fd5b61035e610d4f565b6000808315156105755760009150610591565b5082820282848281151561058557fe5b041461058d57fe5b8091505b5092915050565b60008282018381101561058d57fe5b60008060006105c1600c548561056290919063ffffffff16565b9150600190505b600481116106245760085462093a80820201421161061c576000818152600d602052604090205461061590606490610609908590830163ffffffff61056216565b9063ffffffff610d5516565b9250610628565b6001016105c8565b8192505b5050919050565b60008282111561063b57fe5b50900390565b60038054600181600116156101000203166002900480601f0160208091040260200160405190810160405280929190818152602001828054600181600116156101000203166002900480156106d75780601f106106ac576101008083540402835291602001916106d7565b820191906000526020600020905b8154815290600101906020018083116106ba57829003601f168201915b505050505081565b600160a060020a03338116600081815260026020908152604080832094871680845294909152808220859055909291907f8c5be1e5ebec7d5bd14f71427d1e84f3dd0314c0f7b2291e5b200ac8c7c3b9259085905190815260200160405180910390a350600192915050565b60065481565b600e54600160a060020a031681565b600a5481565b6000600160a060020a038316151561077d57600080fd5b600160a060020a0384166000908152602081905260409020548211156107a257600080fd5b600160a060020a03808516600090815260026020908152604080832033909416835292905220548211156107d557600080fd5b600160a060020a0384166000908152602081905260409020546107fe908363ffffffff61062f16565b600160a060020a038086166000908152602081905260408082209390935590851681522054610833908363ffffffff61059816565b600160a060020a0380851660009081526020818152604080832094909455878316825260028152838220339093168252919091522054610879908363ffffffff61062f16565b600160a060020a03808616600081815260026020908152604080832033861684529091529081902093909355908516917fddf252ad1be2c89b69c2b068fc378daa952ba7f163c4a11628f55a4df523b3ef9085905190815260200160405180910390a35060019392505050565b60055481565b600160a060020a0333811660009081526002602090815260408083209386168352929052908120548083111561094957600160a060020a033381166000908152600260209081526040808320938816835292905290812055610980565b610959818463ffffffff61062f16565b600160a060020a033381166000908152600260209081526040808320938916835292905220555b600160a060020a0333811660008181526002602090815260408083209489168084529490915290819020547f8c5be1e5ebec7d5bd14f71427d1e84f3dd0314c0f7b2291e5b200ac8c7c3b925915190815260200160405180910390a35060019392505050565b600160a060020a031660009081526020819052604090205490565b60048054600181600116156101000203166002900480601f0160208091040260200160405190810160405280929190818152602001828054600181600116156101000203166002900480156106d75780601f106106ac576101008083540402835291602001916106d7565b60095481565b600b5481565b6000600160a060020a0383161515610a8f57600080fd5b600160a060020a033316600090815260208190526040902054821115610ab457600080fd5b600160a060020a033316600090815260208190526040902054610add908363ffffffff61062f16565b600160a060020a033381166000908152602081905260408082209390935590851681522054610b12908363ffffffff61059816565b60008085600160a060020a0316600160a060020a031681526020019081526020016000208190555082600160a060020a031633600160a060020a03167fddf252ad1be2c89b69c2b068fc378daa952ba7f163c4a11628f55a4df523b3ef8460405190815260200160405180910390a350600192915050565b600d6020526000908152604090205481565b600e5433600160a060020a03908116911614610bb757600080fd5b600897909755600995909555600c93909355670de0b6b3a7640000909102600a55600d6020527ffd54ff1ed53f34a900b24c5ba64f85761163b5d82d98a47b9bd80e45466993c5557f10a81eed9d63d16face5e76357905348e6253d3394086026bb2bf2145d7cc249557f26b4a10d0f0b04925c23bd4480ee147c916e5e87a7d68206a533dad160ac81e255600460009081527fafafe8948a4ed9d478b1e9a5780b119b5edd00ea7d07bc35bef7c814824eb94b91909155600755565b600c5481565b60075481565b600160a060020a033381166000908152600260209081526040808320938616835292905290812054610cb8908363ffffffff61059816565b600160a060020a0333811660008181526002602090815260408083209489168084529490915290819020849055919290917f8c5be1e5ebec7d5bd14f71427d1e84f3dd0314c0f7b2291e5b200ac8c7c3b92591905190815260200160405180910390a350600192915050565b600160a060020a03918216600090815260026020908152604080832093909416825291909152205490565b60085481565b6000808284811515610d6357fe5b049493505050505600a165627a7a72305820a51dbfbfe0320a306c58e8ce21f2fb84fdad497b9f6d6e29d314c47dd7d1cbcb0029",
  "source": "pragma solidity ^0.4.15;\n\nimport 'zeppelin-solidity/contracts/token/ERC20/ERC20Basic.sol';\nimport 'zeppelin-solidity/contracts/token/ERC20/StandardToken.sol';\n\ncontract DINTToken is StandardToken {\n    using SafeMath for uint256;\n\n    string public name = \"DINT Coin\";\n    string public symbol = \"DINT\";\n    uint256 public decimals = 18;\n\n    uint256 public totalSupply = 20*1000000 ether;\n    uint256 public totalRaised; // total ether raised (in wei)\n\n    uint256 public startTimestamp; // timestamp after which ICO will start\n    uint256 public durationSeconds = 30*60*60*24; // 1 months\n\n    uint256 public maxCap; // the ICO ether max cap (in wei)\n\n    uint256 public minAmount = 1 ether; // Minimum Transaction Amount(1 DIC)\n\n    uint256 public coinsPerETH = 682;\n\n    mapping(uint => uint) public weeklyRewards;\n\n    /**\n     * Address which will receive raised funds \n     * and owns the total supply of tokens\n     */\n    address public fundsWallet;\n\n    function DINTToken() {\n        fundsWallet = 0x1660225Ed0229d1B1e62e56c5A9a9e19e004Ea4a;\n        startTimestamp = 1526169600;\n\n        balances[fundsWallet] = totalSupply;\n        Transfer(0x0, fundsWallet, totalSupply);\n    }\n\n    function() isIcoOpen checkMin payable{\n        totalRaised = totalRaised.add(msg.value);\n\n        uint256 tokenAmount = calculateTokenAmount(msg.value);\n        balances[fundsWallet] = balances[fundsWallet].sub(tokenAmount);\n        balances[msg.sender] = balances[msg.sender].add(tokenAmount);\n\n        Transfer(fundsWallet, msg.sender, tokenAmount);\n\n        // immediately transfer ether to fundsWallet\n        fundsWallet.transfer(msg.value);\n    }\n\n    function calculateTokenAmount(uint256 weiAmount) constant returns(uint256) {\n        uint256 tokenAmount = weiAmount.mul(coinsPerETH);\n        // setting rewards is possible only for 4 weeks\n        for (uint i = 1; i <= 4; i++) {\n            if (now <= startTimestamp +  (i*7 days)) {\n                return tokenAmount.mul(100+weeklyRewards[i]).div(100);    \n            }\n        }\n        return tokenAmount;\n    }\n\n    function adminAddICO(uint256 _startTimestamp, uint256 _durationSeconds, \n        uint256 _coinsPerETH, uint256 _maxCap, uint _week1Rewards,\n        uint _week2Rewards, uint _week3Rewards, uint _week4Rewards) isOwner{\n\n        startTimestamp = _startTimestamp;\n        durationSeconds = _durationSeconds;\n        coinsPerETH = _coinsPerETH;\n        maxCap = _maxCap * 1 ether;\n\n        weeklyRewards[1] = _week1Rewards;\n        weeklyRewards[2] = _week2Rewards;\n        weeklyRewards[3] = _week3Rewards;\n        weeklyRewards[4] = _week4Rewards;\n\n        // reset totalRaised\n        totalRaised = 0;\n    }\n\n    modifier isIcoOpen() {\n        require(now >= startTimestamp);\n        require(now <= (startTimestamp + durationSeconds));\n        require(totalRaised <= maxCap);\n        _;\n    }\n\n    modifier checkMin(){\n        require(msg.value.mul(coinsPerETH) >= minAmount);\n        _;\n    }\n\n    modifier isOwner(){\n        require(msg.sender == fundsWallet);\n        _;\n    }\n}\n",
  "sourcePath": "/home/projects/projects/julius_ico/contracts/DINTICO.sol",
  "compiler": {
    "name": "solc",
    "version": "0.4.19+commit.c4cbbb05.Emscripten.clang"
  },
  "schemaVersion": "1.0.1",
  "updatedAt": "2018-05-12T20:35:39.541Z"
}